{
  "contractName": "Pool",
  "abi": [
    {
      "inputs": [],
      "stateMutability": "nonpayable",
      "type": "constructor"
    },
    {
      "stateMutability": "payable",
      "type": "receive",
      "payable": true
    },
    {
      "inputs": [],
      "name": "deposit",
      "outputs": [],
      "stateMutability": "payable",
      "type": "function",
      "payable": true
    },
    {
      "inputs": [
        {
          "internalType": "address",
          "name": "_address",
          "type": "address"
        }
      ],
      "name": "viewDeposited",
      "outputs": [
        {
          "internalType": "uint256",
          "name": "amount",
          "type": "uint256"
        }
      ],
      "stateMutability": "view",
      "type": "function",
      "constant": true
    },
    {
      "inputs": [
        {
          "internalType": "address",
          "name": "_address",
          "type": "address"
        },
        {
          "internalType": "uint256",
          "name": "_amount",
          "type": "uint256"
        }
      ],
      "name": "withdrawTokens",
      "outputs": [],
      "stateMutability": "nonpayable",
      "type": "function"
    }
  ],
  "bytecode": "0x608060405234801561001057600080fd5b50600080546001600160a01b03191633179055604051309061003190610084565b6001600160a01b03909116815260405190819003602001906000f08015801561005e573d6000803e3d6000fd5b50600280546001600160a01b0319166001600160a01b0392909216919091179055610091565b6105998061045183390190565b6103b1806100a06000396000f3fe6080604052600436106100385760003560e01c806306b091f91461004c57806313031db914610085578063d0e30db0146100ca57610047565b36610047576100456100ce565b005b600080fd5b34801561005857600080fd5b506100456004803603604081101561006f57600080fd5b506001600160a01b0381351690602001356101c8565b34801561009157600080fd5b506100b8600480360360208110156100a857600080fd5b50356001600160a01b03166102cb565b60408051918252519081900360200190f35b6100455b600034116100db57600080fd5b60025460408051336024820152600e430260448083019190915282518083039091018152606490910182526020810180516001600160e01b0316630d54666960e31b178152915181516000946001600160a01b031693349392918291908083835b6020831061015b5780518252601f19909201916020918201910161013c565b6001836020036101000a03801982511681845116808217855250505050505090500191505060006040518083038185875af1925050503d80600081146101bd576040519150601f19603f3d011682016040523d82523d6000602084013e6101c2565b606091505b50505050565b6001600160a01b038216331461020f5760405162461bcd60e51b815260040180806020018281038252602e81526020018061034e602e913960400191505060405180910390fd5b80600154101561025a576040805162461bcd60e51b8152602060048201526011602482015270457863656564696e672062616c616e636560781b604482015290519081900360640190fd5b6002546040805163f3fef3a360e01b81526001600160a01b038581166004830152602482018590529151919092169163f3fef3a391604480830192600092919082900301818387803b1580156102af57600080fd5b505af11580156102c3573d6000803e3d6000fd5b505050505050565b6002546040805162aac43560e21b81526001600160a01b038481166004830152915160009392909216916302ab10d491602480820192602092909190829003018186803b15801561031b57600080fd5b505afa15801561032f573d6000803e3d6000fd5b505050506040513d602081101561034557600080fd5b50519291505056fe596f752063616e6e6f74207769746864726177206f6e20626568616c66206f6620736f6d65626f647920656c7365a264697066735822122034f4cd91d7e6d3ee1b728c3ce614e41ff22bb0994e33487bc28386c3b153ad7b64736f6c634300060c0033608060405234801561001057600080fd5b506040516105993803806105998339818101604052602081101561003357600080fd5b5051600180546001600160a01b0319166001600160a01b03909216919091179055610536806100636000396000f3fe6080604052600436106100345760003560e01c806302ab10d41461003957806347e7ef241461007e578063f3fef3a3146100ac575b600080fd5b34801561004557600080fd5b5061006c6004803603602081101561005c57600080fd5b50356001600160a01b03166100e5565b60408051918252519081900360200190f35b6100aa6004803603604081101561009457600080fd5b506001600160a01b0381351690602001356101b4565b005b3480156100b857600080fd5b506100aa600480360360408110156100cf57600080fd5b506001600160a01b03813516906020013561026c565b6001600160a01b03811660009081526020819052604081205461013d576040805162461bcd60e51b815260206004820152600b60248201526a4e6f206465706f7369747360a81b604482015290519081900360640190fd5b6000805b6001600160a01b0384166000908152602081905260409020548110156101ad576001600160a01b038416600090815260208190526040812080548390811061018557fe5b600091825260209091206003909102015490506101a283826103a3565b925050600101610141565b5092915050565b6001600160a01b03828116600081815260208181526040808320815160608082018452348083528286018881528386018b8152855460018082018855968a5298889020945160039099029094019788555193870180546001600160a01b03191694909916939093179097555160029094019390935580519283529082019290925280820184905290517f07aef127ab8a57112ca38127f1af3440de8cdc51224e6e82a44889d5013e9717929181900390910190a15050565b80826000610279826100e5565b9050828110156102ba5760405162461bcd60e51b81526004018080602001828103825260288152602001806104d96028913960400191505060405180910390fd5b6000805b6001600160a01b03871660009081526020819052604090205481101561039a576001600160a01b038716600090815260208190526040812080548390811061030257fe5b90600052602060002090600302016000015490508281106103325760006103298285610404565b9050505061039a565b61033c8382610404565b506001600160a01b038816600090815260208190526040902080548390811061036157fe5b600091825260208220600390910201818155600180820180546001600160a01b03191690556002909101919091559190910190506102be565b50505050505050565b6000828201838110156103fd576040805162461bcd60e51b815260206004820152601b60248201527f536166654d6174683a206164646974696f6e206f766572666c6f770000000000604482015290519081900360640190fd5b9392505050565b60006103fd83836040518060400160405280601e81526020017f536166654d6174683a207375627472616374696f6e206f766572666c6f770000815250600081848411156104d05760405162461bcd60e51b81526004018080602001828103825283818151815260200191508051906020019080838360005b8381101561049557818101518382015260200161047d565b50505050905090810190601f1680156104c25780820380516001836020036101000a031916815260200191505b509250505060405180910390fd5b50505090039056fe546f74616c207769746864726177616c206578636565647320746f74616c206465706f7369746564a2646970667358221220ea537129af09fa00a15b1f5dd11ef253610d59a28c341d020ac626ff1f60f20664736f6c634300060c0033",
  "source": "//SPDX-License-Identifier: UNLICENSED\n\npragma solidity >= 0.6.0 <0.7.0;\n\nimport \"./lib/SafeMath.sol\";\nimport \"./Treasury.sol\";\n\ncontract Pool {\n    using SafeMath for uint;\n\n    address private owner;\n    uint private totalTokens;\n\n    Treasury private treasury;\n\n    constructor() public {\n        owner = msg.sender;\n        treasury = new Treasury(this);\n    }\n\n    function deposit() public payable {\n        require(msg.value > 0);\n\n        (bool success,) = address(treasury).call.value(msg.value)(\n            abi.encodeWithSignature(\n                \"deposit(address, uint)\",\n                msg.sender,\n                block.number * 14\n            )\n        );\n    }\n\n    receive() external payable {\n        deposit();\n    }\n\n    function viewDeposited(address _address) public view returns (uint amount) {\n        return treasury.getDepositsForAddress(_address);\n    }\n\n    function withdrawTokens(address _address, uint _amount) public {\n        require(_address == msg.sender, \"You cannot withdraw on behalf of somebody else\");\n        require(totalTokens >= _amount, \"Exceeding balance\");\n\n        treasury.withdraw(_address, _amount);\n    }\n}",
  "sourcePath": "/Users/lukewatson/projects/crypto/token-pool/contracts/Pool.sol",
  "compiler": {
    "name": "solc",
    "version": "0.6.12+commit.27d51765.Emscripten.clang"
  },
  "schemaVersion": "3.0.23",
  "updatedAt": "2020-08-18T12:46:18.901Z",
  "networkType": "ethereum",
  "devdoc": {
    "kind": "dev",
    "methods": {},
    "version": 1
  },
  "userdoc": {
    "kind": "user",
    "methods": {},
    "version": 1
  }
}