{
  "contractName": "Pool",
  "abi": [
    {
      "inputs": [],
      "stateMutability": "nonpayable",
      "type": "constructor"
    },
    {
      "stateMutability": "payable",
      "type": "receive",
      "payable": true
    },
    {
      "inputs": [],
      "name": "deposit",
      "outputs": [],
      "stateMutability": "payable",
      "type": "function",
      "payable": true
    },
    {
      "inputs": [
        {
          "internalType": "address",
          "name": "_address",
          "type": "address"
        }
      ],
      "name": "viewDeposited",
      "outputs": [
        {
          "internalType": "uint256",
          "name": "amount",
          "type": "uint256"
        }
      ],
      "stateMutability": "view",
      "type": "function",
      "constant": true
    },
    {
      "inputs": [
        {
          "internalType": "uint256",
          "name": "_amount",
          "type": "uint256"
        }
      ],
      "name": "withdrawTokens",
      "outputs": [],
      "stateMutability": "nonpayable",
      "type": "function"
    }
  ],
  "bytecode": "0x608060405234801561001057600080fd5b50600080546001600160a01b03191633179055604051309061003190610084565b6001600160a01b03909116815260405190819003602001906000f08015801561005e573d6000803e3d6000fd5b50600280546001600160a01b0319166001600160a01b0392909216919091179055610091565b61044f806102e783390190565b610247806100a06000396000f3fe6080604052600436106100385760003560e01c806313031db91461004c578063315a095d14610091578063d0e30db0146100bb57610047565b36610047576100456100bf565b005b600080fd5b34801561005857600080fd5b5061007f6004803603602081101561006f57600080fd5b50356001600160a01b0316610141565b60408051918252519081900360200190f35b34801561009d57600080fd5b50610045600480360360208110156100b457600080fd5b50356101c3565b6100455b600034116100cc57600080fd5b6002546040805163bc157ac160e01b8152346004820152336024820152600e4302604482015290516001600160a01b039092169163bc157ac19160648082019260009290919082900301818387803b15801561012757600080fd5b505af115801561013b573d6000803e3d6000fd5b50505050565b6002546040805162aac43560e21b81526001600160a01b038481166004830152915160009392909216916302ab10d491602480820192602092909190829003018186803b15801561019157600080fd5b505afa1580156101a5573d6000803e3d6000fd5b505050506040513d60208110156101bb57600080fd5b505192915050565b80600154101561020e576040805162461bcd60e51b8152602060048201526011602482015270457863656564696e672062616c616e636560781b604482015290519081900360640190fd5b5056fea264697066735822122036fb106d1327e7889a692ce63c044115890e6208d49df331c617af0d5ae47b7464736f6c634300060c0033608060405234801561001057600080fd5b5060405161044f38038061044f8339818101604052602081101561003357600080fd5b5051600180546001600160a01b0319166001600160a01b039092169190911790556103ec806100636000396000f3fe608060405234801561001057600080fd5b50600436106100415760003560e01c806302ab10d414610046578063bc157ac11461007e578063f3fef3a3146100b2575b600080fd5b61006c6004803603602081101561005c57600080fd5b50356001600160a01b03166100de565b60408051918252519081900360200190f35b6100b06004803603606081101561009457600080fd5b508035906001600160a01b0360208201351690604001356101ad565b005b6100b0600480360360408110156100c857600080fd5b506001600160a01b038135169060200135610265565b6001600160a01b038116600090815260208190526040812054610136576040805162461bcd60e51b815260206004820152600b60248201526a4e6f206465706f7369747360a81b604482015290519081900360640190fd5b6000805b6001600160a01b0384166000908152602081905260409020548110156101a6576001600160a01b038416600090815260208190526040812080548390811061017e57fe5b6000918252602090912060039091020154905061019b838261032d565b92505060010161013a565b5092915050565b6001600160a01b038281166000818152602081815260408083208151606080820184528a82528185018781528285018a815284546001808201875595895297879020935160039098029093019687555192860180546001600160a01b03191693909816929092179096559451600290930192909255815187815290810192909252818101849052517f07aef127ab8a57112ca38127f1af3440de8cdc51224e6e82a44889d5013e9717929181900390910190a1505050565b80826000610272826100de565b9050828110156102b35760405162461bcd60e51b815260040180806020018281038252602881526020018061038f6028913960400191505060405180910390fd5b6000805b6001600160a01b038716600090815260208190526040902054811015610324576001600160a01b03871660009081526020819052604081208054839081106102fb57fe5b9060005260206000209060030201600001549050610319838261032d565b9250506001016102b7565b50505050505050565b600082820183811015610387576040805162461bcd60e51b815260206004820152601b60248201527f536166654d6174683a206164646974696f6e206f766572666c6f770000000000604482015290519081900360640190fd5b939250505056fe546f74616c207769746864726177616c206578636565647320746f74616c206465706f7369746564a2646970667358221220200b6431699ab20283966dcb687c8f141ebccab3d85427aab2b06f0bab7c9cfb64736f6c634300060c0033",
  "source": "//SPDX-License-Identifier: UNLICENSED\n\npragma solidity >= 0.6.0 <0.7.0;\n\nimport \"./lib/SafeMath.sol\";\nimport \"./Treasury.sol\";\n\ncontract Pool {\n    using SafeMath for uint;\n\n    address private owner;\n    uint private totalTokens;\n\n    Treasury private treasury;\n\n    constructor() public {\n        owner = msg.sender;\n        treasury = new Treasury(this);\n    }\n\n    function deposit() public payable {\n        require(msg.value > 0);\n\n        treasury.deposit(\n            msg.value,\n            msg.sender,\n            block.number * 14\n        );\n    }\n\n    receive() external payable {\n        deposit();\n    }\n\n    function viewDeposited(address _address) public view returns (uint amount) {\n        return treasury.getDepositsForAddress(_address);\n    }\n\n    function withdrawTokens(uint _amount) public {\n        require(totalTokens >= _amount, \"Exceeding balance\");\n    }\n}",
  "sourcePath": "/Users/lukewatson/projects/crypto/token-pool/contracts/Pool.sol",
  "compiler": {
    "name": "solc",
    "version": "0.6.12+commit.27d51765.Emscripten.clang"
  },
  "schemaVersion": "3.0.23",
  "updatedAt": "2020-08-18T09:21:26.827Z",
  "networkType": "ethereum",
  "devdoc": {
    "kind": "dev",
    "methods": {},
    "version": 1
  },
  "userdoc": {
    "kind": "user",
    "methods": {},
    "version": 1
  }
}