{
  "contractName": "Treasury",
  "abi": [
    {
      "inputs": [
        {
          "internalType": "contract Pool",
          "name": "_pool",
          "type": "address"
        }
      ],
      "stateMutability": "nonpayable",
      "type": "constructor"
    },
    {
      "anonymous": false,
      "inputs": [
        {
          "indexed": false,
          "internalType": "uint256",
          "name": "_amount",
          "type": "uint256"
        },
        {
          "indexed": false,
          "internalType": "address",
          "name": "_from",
          "type": "address"
        },
        {
          "indexed": false,
          "internalType": "uint256",
          "name": "when",
          "type": "uint256"
        }
      ],
      "name": "DepositEvent",
      "type": "event"
    },
    {
      "inputs": [
        {
          "internalType": "address",
          "name": "_address",
          "type": "address"
        },
        {
          "internalType": "uint256",
          "name": "_timeDeposit",
          "type": "uint256"
        }
      ],
      "name": "deposit",
      "outputs": [],
      "stateMutability": "payable",
      "type": "function"
    },
    {
      "inputs": [
        {
          "internalType": "address",
          "name": "_address",
          "type": "address"
        }
      ],
      "name": "getDepositsForAddress",
      "outputs": [
        {
          "internalType": "uint256",
          "name": "amount",
          "type": "uint256"
        }
      ],
      "stateMutability": "view",
      "type": "function"
    },
    {
      "inputs": [
        {
          "internalType": "address",
          "name": "_address",
          "type": "address"
        },
        {
          "internalType": "uint256",
          "name": "_amount",
          "type": "uint256"
        }
      ],
      "name": "withdraw",
      "outputs": [],
      "stateMutability": "nonpayable",
      "type": "function"
    }
  ],
  "bytecode": "0x608060405234801561001057600080fd5b506040516105993803806105998339818101604052602081101561003357600080fd5b5051600180546001600160a01b0319166001600160a01b03909216919091179055610536806100636000396000f3fe6080604052600436106100345760003560e01c806302ab10d41461003957806347e7ef241461007e578063f3fef3a3146100ac575b600080fd5b34801561004557600080fd5b5061006c6004803603602081101561005c57600080fd5b50356001600160a01b03166100e5565b60408051918252519081900360200190f35b6100aa6004803603604081101561009457600080fd5b506001600160a01b0381351690602001356101b4565b005b3480156100b857600080fd5b506100aa600480360360408110156100cf57600080fd5b506001600160a01b03813516906020013561026c565b6001600160a01b03811660009081526020819052604081205461013d576040805162461bcd60e51b815260206004820152600b60248201526a4e6f206465706f7369747360a81b604482015290519081900360640190fd5b6000805b6001600160a01b0384166000908152602081905260409020548110156101ad576001600160a01b038416600090815260208190526040812080548390811061018557fe5b600091825260209091206003909102015490506101a283826103a3565b925050600101610141565b5092915050565b6001600160a01b03828116600081815260208181526040808320815160608082018452348083528286018881528386018b8152855460018082018855968a5298889020945160039099029094019788555193870180546001600160a01b03191694909916939093179097555160029094019390935580519283529082019290925280820184905290517f07aef127ab8a57112ca38127f1af3440de8cdc51224e6e82a44889d5013e9717929181900390910190a15050565b80826000610279826100e5565b9050828110156102ba5760405162461bcd60e51b81526004018080602001828103825260288152602001806104d96028913960400191505060405180910390fd5b6000805b6001600160a01b03871660009081526020819052604090205481101561039a576001600160a01b038716600090815260208190526040812080548390811061030257fe5b90600052602060002090600302016000015490508281106103325760006103298285610404565b9050505061039a565b61033c8382610404565b506001600160a01b038816600090815260208190526040902080548390811061036157fe5b600091825260208220600390910201818155600180820180546001600160a01b03191690556002909101919091559190910190506102be565b50505050505050565b6000828201838110156103fd576040805162461bcd60e51b815260206004820152601b60248201527f536166654d6174683a206164646974696f6e206f766572666c6f770000000000604482015290519081900360640190fd5b9392505050565b60006103fd83836040518060400160405280601e81526020017f536166654d6174683a207375627472616374696f6e206f766572666c6f770000815250600081848411156104d05760405162461bcd60e51b81526004018080602001828103825283818151815260200191508051906020019080838360005b8381101561049557818101518382015260200161047d565b50505050905090810190601f1680156104c25780820380516001836020036101000a031916815260200191505b509250505060405180910390fd5b50505090039056fe546f74616c207769746864726177616c206578636565647320746f74616c206465706f7369746564a2646970667358221220ea537129af09fa00a15b1f5dd11ef253610d59a28c341d020ac626ff1f60f20664736f6c634300060c0033",
  "source": "//SPDX-License-Identifier: UNLICENSED\n\npragma solidity >= 0.6.0 <0.7.0;\n\nimport \"./lib/SafeMath.sol\";\nimport \"./Pool.sol\";\n//import \"https://github.com/OpenZeppelin/openzeppelin-contracts/blob/master/contracts/payment/PaymentSplitter.sol\";\n\n// todo make ownable\ncontract Treasury {\n    using SafeMath for uint;\n\n    event DepositEvent(uint _amount, address _from, uint when);\n\n    modifier withdrawalLimit(uint _amount, address _address) {\n        uint totalDeposited = getDepositsForAddress(_address);\n        require(totalDeposited >= _amount, \"Total withdrawal exceeds total deposited\");\n        _;\n    }\n\n    struct DepositStruct {\n        uint _amount;\n        address _address;\n        uint _timeDeposit;\n    }\n\n    mapping(address => DepositStruct[]) private deposits;\n\n    Pool private pool;\n\n    constructor(Pool _pool) public {\n        pool = _pool;\n    }\n\n    function deposit(address _address, uint _timeDeposit) payable public {\n        deposits[_address].push(DepositStruct(\n                msg.value,\n                _address,\n                _timeDeposit\n            )\n        );\n\n        emit DepositEvent(msg.value, _address, _timeDeposit);\n    }\n\n    function getDepositsForAddress(address _address) public view returns (uint amount) {\n        require(deposits[_address].length > 0, \"No deposits\");\n        uint totalDeposited = 0;\n\n        for (uint i = 0; i < deposits[_address].length; i++) {\n            uint amountInDeposit = deposits[_address][i]._amount;\n            totalDeposited = totalDeposited.add(amountInDeposit);\n        }\n\n        return totalDeposited;\n    }\n\n    function withdraw(address _address, uint _amount) external withdrawalLimit(_amount, _address) {\n        uint totalWithdrawn;\n\n        for (uint i = 0; i < deposits[_address].length; i++) {\n            uint amountInDeposit = deposits[_address][i]._amount;\n\n            if (amountInDeposit >= totalWithdrawn) {\n                uint remainder = amountInDeposit.sub(totalWithdrawn);\n                break;\n            }\n            totalWithdrawn.sub(amountInDeposit);\n            delete deposits[_address][i];\n        }\n\n    }\n}",
  "sourcePath": "/Users/lukewatson/projects/crypto/token-pool/contracts/Treasury.sol",
  "compiler": {
    "name": "solc",
    "version": "0.6.12+commit.27d51765.Emscripten.clang"
  },
  "schemaVersion": "3.0.23",
  "updatedAt": "2020-08-18T12:00:16.825Z",
  "devdoc": {
    "kind": "dev",
    "methods": {},
    "version": 1
  },
  "userdoc": {
    "kind": "user",
    "methods": {},
    "version": 1
  }
}