{
  "contractName": "Treasury",
  "abi": [
    {
      "inputs": [
        {
          "internalType": "contract Pool",
          "name": "_pool",
          "type": "address"
        }
      ],
      "stateMutability": "nonpayable",
      "type": "constructor"
    },
    {
      "anonymous": false,
      "inputs": [
        {
          "indexed": false,
          "internalType": "uint256",
          "name": "_amount",
          "type": "uint256"
        },
        {
          "indexed": false,
          "internalType": "address",
          "name": "_from",
          "type": "address"
        },
        {
          "indexed": false,
          "internalType": "uint256",
          "name": "when",
          "type": "uint256"
        }
      ],
      "name": "DepositEvent",
      "type": "event"
    },
    {
      "inputs": [
        {
          "internalType": "uint256",
          "name": "_amount",
          "type": "uint256"
        },
        {
          "internalType": "address",
          "name": "_address",
          "type": "address"
        },
        {
          "internalType": "uint256",
          "name": "_timeDeposit",
          "type": "uint256"
        }
      ],
      "name": "deposit",
      "outputs": [],
      "stateMutability": "nonpayable",
      "type": "function"
    },
    {
      "inputs": [
        {
          "internalType": "address",
          "name": "_address",
          "type": "address"
        }
      ],
      "name": "getDepositsForAddress",
      "outputs": [
        {
          "internalType": "uint256",
          "name": "amount",
          "type": "uint256"
        }
      ],
      "stateMutability": "view",
      "type": "function"
    },
    {
      "inputs": [
        {
          "internalType": "address",
          "name": "_address",
          "type": "address"
        },
        {
          "internalType": "uint256",
          "name": "_amount",
          "type": "uint256"
        }
      ],
      "name": "withdraw",
      "outputs": [],
      "stateMutability": "nonpayable",
      "type": "function"
    }
  ],
  "bytecode": "0x608060405234801561001057600080fd5b5060405161044f38038061044f8339818101604052602081101561003357600080fd5b5051600180546001600160a01b0319166001600160a01b039092169190911790556103ec806100636000396000f3fe608060405234801561001057600080fd5b50600436106100415760003560e01c806302ab10d414610046578063bc157ac11461007e578063f3fef3a3146100b2575b600080fd5b61006c6004803603602081101561005c57600080fd5b50356001600160a01b03166100de565b60408051918252519081900360200190f35b6100b06004803603606081101561009457600080fd5b508035906001600160a01b0360208201351690604001356101ad565b005b6100b0600480360360408110156100c857600080fd5b506001600160a01b038135169060200135610265565b6001600160a01b038116600090815260208190526040812054610136576040805162461bcd60e51b815260206004820152600b60248201526a4e6f206465706f7369747360a81b604482015290519081900360640190fd5b6000805b6001600160a01b0384166000908152602081905260409020548110156101a6576001600160a01b038416600090815260208190526040812080548390811061017e57fe5b6000918252602090912060039091020154905061019b838261032d565b92505060010161013a565b5092915050565b6001600160a01b038281166000818152602081815260408083208151606080820184528a82528185018781528285018a815284546001808201875595895297879020935160039098029093019687555192860180546001600160a01b03191693909816929092179096559451600290930192909255815187815290810192909252818101849052517f07aef127ab8a57112ca38127f1af3440de8cdc51224e6e82a44889d5013e9717929181900390910190a1505050565b80826000610272826100de565b9050828110156102b35760405162461bcd60e51b815260040180806020018281038252602881526020018061038f6028913960400191505060405180910390fd5b6000805b6001600160a01b038716600090815260208190526040902054811015610324576001600160a01b03871660009081526020819052604081208054839081106102fb57fe5b9060005260206000209060030201600001549050610319838261032d565b9250506001016102b7565b50505050505050565b600082820183811015610387576040805162461bcd60e51b815260206004820152601b60248201527f536166654d6174683a206164646974696f6e206f766572666c6f770000000000604482015290519081900360640190fd5b939250505056fe546f74616c207769746864726177616c206578636565647320746f74616c206465706f7369746564a2646970667358221220200b6431699ab20283966dcb687c8f141ebccab3d85427aab2b06f0bab7c9cfb64736f6c634300060c0033",
  "source": "//SPDX-License-Identifier: UNLICENSED\n\npragma solidity >= 0.6.0 <0.7.0;\n\nimport \"./lib/SafeMath.sol\";\nimport \"./Pool.sol\";\n//import \"https://github.com/OpenZeppelin/openzeppelin-contracts/blob/master/contracts/payment/PaymentSplitter.sol\";\n\n// todo make ownable\ncontract Treasury {\n    using SafeMath for uint;\n\n    event DepositEvent(uint _amount, address _from, uint when);\n\n    modifier withdrawalLimit(uint _amount, address _address) {\n        uint totalDeposited = getDepositsForAddress(_address);\n        require(totalDeposited >= _amount, \"Total withdrawal exceeds total deposited\");\n        _;\n    }\n\n    struct DepositStruct {\n        uint _amount;\n        address _address;\n        uint _timeDeposit;\n    }\n\n    mapping(\n    address => DepositStruct[]\n    ) private deposits;\n\n    Pool private pool;\n\n    constructor(Pool _pool) public {\n        pool = _pool;\n    }\n\n    function deposit(uint _amount, address _address, uint _timeDeposit) public {\n        deposits[_address].push(DepositStruct(\n                _amount,\n                _address,\n                _timeDeposit\n            ));\n\n        emit DepositEvent(_amount, _address, _timeDeposit);\n    }\n\n    function getDepositsForAddress(address _address) public view returns (uint amount) {\n        require(deposits[_address].length > 0, \"No deposits\");\n        uint totalDeposited = 0;\n\n        for (uint i = 0; i < deposits[_address].length; i++) {\n            uint amountInDeposit = deposits[_address][i]._amount;\n            totalDeposited = totalDeposited.add(amountInDeposit);\n        }\n\n        return totalDeposited;\n    }\n\n    function withdraw(address _address, uint _amount) external withdrawalLimit(_amount, _address) {\n        uint totalWithdrawn;\n\n        for (uint i = 0; i < deposits[_address].length; i++) {\n            uint amountInDeposit = deposits[_address][i]._amount;\n\n            if (amountInDeposit >= totalWithdrawn) {\n                // need to caclulate remainder\n            }\n\n            totalWithdrawn = totalWithdrawn.add(amountInDeposit);\n\n//            deposits[_address][i].pop();\n        }\n\n    }\n}",
  "sourcePath": "/Users/lukewatson/projects/crypto/token-pool/contracts/Treasury.sol",
  "compiler": {
    "name": "solc",
    "version": "0.6.12+commit.27d51765.Emscripten.clang"
  },
  "schemaVersion": "3.0.23",
  "updatedAt": "2020-08-18T09:21:12.556Z",
  "devdoc": {
    "kind": "dev",
    "methods": {},
    "version": 1
  },
  "userdoc": {
    "kind": "user",
    "methods": {},
    "version": 1
  }
}